:100000000C945D000C9485000C9485000C94850084
:100010000C9485000C9485000C9485000C9485004C
:100020000C9485000C9485000C9485000C9485003C
:100030000C9485000C9485000C9485000C9485002C
:100040000C948C020C9485000C9485000C94850013
:100050000C9485000C9485000C9485000C9485000C
:100060000C9485000C94850000000008000201003B
:100070000003040700000000000000000000000072
:10008000250028002B0000000000240027002A0083
:10009000040404040404040402020202020203032E
:1000A0000303030301020408102040800102040836
:1000B00010200102040810208D0311241FBECFEF71
:1000C000D8E0DEBFCDBF11E0A0E0B1E0E6E6F7E0AA
:1000D00002C005900D92A432B107D9F721E0A4E245
:1000E000B1E001C01D92A534B207E1F710E0CDE503
:1000F000D0E004C02197FE010E94AB03CC35D107AC
:10010000C9F70E94D6020C94B1030C94000090E051
:10011000FC01EC55FF4F249180579F4FFC018491C7
:10012000882399F090E0880F991FFC01EA57FF4F50
:10013000A591B491FC01E458FF4F859194918FB73C
:10014000F894EC91E22BEC938FBF0895AF92BF929D
:10015000CF92DF92EF92FF920F931F93CF93DF9393
:100160006C017B018B01040F151FEB015E01AE18C2
:10017000BF08C017D10759F06991D601ED91FC91E4
:100180000190F081E02DC6010995892B79F7C50111
:10019000DF91CF911F910F91FF90EF90DF90CF9063
:1001A000BF90AF90089590E0FC01E859FF4F249173
:1001B000FC01EC55FF4F3491FC01E057FF4FE491F7
:1001C000EE23C9F0222339F0233001F1A8F42130C5
:1001D00019F1223029F1F0E0EE0FFF1FE458FF4F34
:1001E000A591B4918FB7F894EC91611126C0309528
:1001F0003E233C938FBF08952730A9F02830C9F0E3
:10020000243049F7809180008F7D03C08091800069
:100210008F7780938000DFCF84B58F7784BDDBCF6D
:1002200084B58F7DFBCF8091B0008F778093B00035
:10023000D2CF8091B0008F7DF9CF3E2BDACF3FB780
:10024000F8948091290190912A01A0912B01B091FD
:100250002C0126B5A89B05C02F3F19F00196A11DC2
:10026000B11D3FBFBA2FA92F982F8827BC01CD0100
:10027000620F711D811D911D42E0660F771F881F5F
:10028000991F4A95D1F70895089590E080E0089568
:10029000CF93DF93EC0160E08E810E94D30061E098
:1002A0008E810E94D30060E08E810E94D3008BE893
:1002B00091E00197F1F7DF91CF910895CF92DF920E
:1002C000EF92FF920F931F93CF93DF936C017C010A
:1002D00087E0E80EF11CD0E0C0E0062F10E0B80186
:1002E0000C2E02C0759567950A94E2F76170F701CC
:1002F00081917F010E94D3002196C430D10579F706
:10030000C601DF91CF911F910F91FF90EF90DF9089
:10031000CF900C944801CF92DF92EF92FF920F930F
:100320001F93CF93DF93EC01F62E642F8C810E94F4
:10033000D3008D818F3F19F060E00E94D3000F2D14
:1003400010E08F8584FF25C06E0187E0C80ED11CA8
:10035000F12CE12CB8010E2C02C0759567950A941A
:10036000E2F76170F60181916F010E94D300FFEF07
:10037000EF1AFF0A88E0E816F10461F7CE01DF9179
:10038000CF911F910F91FF90EF90DF90CF900C9441
:100390004801B80184E0759567958A95E1F7CE012B
:1003A0000E945E016F2DCE01DF91CF911F910F91C1
:1003B000FF90EF90DF90CF900C945E0140E0682FAB
:1003C0008DE291E00C948B01CF93DF93823029F47E
:1003D00090913C01986090933C0180934001109271
:1003E000410180E48093420180E18093430180E5F4
:1003F00080934401809131010E94870080913201F5
:100400008F3F11F00E948700809133010E94870086
:10041000CDE2D1E09E012D52314080913C0184FD1E
:100420000AC084E090E02196281739073CF48E81B9
:100430000E948700EFCF88E090E0F5CF8BE39DE04E
:100440000197F1F760E0809131010E94D30060E0F4
:10045000809133010E94D300809132018F3F19F0C7
:1004600060E00E94D30080913C0184FD39C063E0CC
:100470008DE291E00E945E01CBE4D6E4CE010197CB
:10048000F1F763E08DE291E00E945E012197F1F7C0
:1004900063E08DE291E00E945E0183E592E00197C6
:1004A000F1F762E08DE291E00E945E0180913C01F3
:1004B00080620E94DE0184E080933D018CE00E9416
:1004C000DE0181E00E94DE018BE39FE10197F1F7FD
:1004D00082E080933E0186E0DF91CF910C94DE01B3
:1004E00080620E94DE018BE496E40197F1F780912F
:1004F0003C0180620E94DE0183E592E00197F1F702
:1005000080913C0180620E94DE01D0CF41E00E94D8
:100510008B0181E090E008951F920F920FB60F9229
:1005200011242F933F938F939F93AF93BF93809109
:10053000250190912601A0912701B09128013091C9
:10054000240123E0230F2D3758F50196A11DB11D7D
:10055000209324018093250190932601A0932701E5
:10056000B09328018091290190912A01A0912B013B
:10057000B0912C010196A11DB11D8093290190938A
:100580002A01A0932B01B0932C01BF91AF919F91B1
:100590008F913F912F910F900FBE0F901F90189544
:1005A00026E8230F0296A11DB11DD2CF789484B501
:1005B000826084BD84B5816084BD85B5826085BD5F
:1005C00085B5816085BD80916E00816080936E00ED
:1005D00010928100809181008260809381008091DF
:1005E0008100816080938100809180008160809390
:1005F00080008091B10084608093B1008091B00050
:1006000081608093B00080917A00846080937A004A
:1006100080917A00826080937A0080917A00816074
:1006200080937A0080917A00806880937A0010929B
:10063000C10082E00E94E401E1E08091400181116B
:10064000E0E0E195F0E0E35DFE4F84898A5F806839
:100650000E94DE0143E050E06EE071E08DE291E047
:100660000E94A600C0E0D0E00FE010E08091000101
:1006700090910101893F2FEF92070CF046C0109333
:100680000101009300010E941F014B015C018CE2FB
:10069000C82EDD24D394E12CF12C0E941F0168198F
:1006A00079098A099B09683E734081059105A8F381
:1006B00081E0C81AD108E108F10828EE820E23E093
:1006C000921EA11CB11CC114D104E104F10429F74C
:1006D00080910001E0914001E230E8F4E150F0E067
:1006E000E35DFE4F9489890F80680E94DE0140E13E
:1006F00050E062E171E08DE291E00E94A600209757
:1007000009F4B4CF0E940000B1CF0197909301018A
:1007100080930001B8CFE1E0E2CFEDE2F1E0138297
:10072000128286E091E0918380838CE084838FEF56
:1007300085838BE0868385E0878384E0808783E000
:10074000818782E08287138614861586168617862F
:1007500081E00C94E401EE0FFF1F0590F491E02D71
:060760000994F894FFCF9C
:100766000F00000000008602A6004501440144492E
:1007760055004553542D313939352020202020206D
:04078600202000002F
:00000001FF
